{
  "transactions": [
    {
      "hash": "0x5207b6d9288c0ba0656b0c9ca6500a1c75b52dce4549cabad23b09049c6cb42a",
      "transactionType": "CALL",
      "contractName": null,
      "contractAddress": "0xba50cd2a20f6da35d788639e581bca8d0b5d4d5f",
      "function": "transfer(address,uint256)",
      "arguments": [
        "0x2678a3E148E92608b9A3FfB4BCb2B1Bec07EFdf1",
        "1000000"
      ],
      "transaction": {
        "from": "0x95f07d66738e651599c576246bcfb4e5e061e934",
        "to": "0xba50cd2a20f6da35d788639e581bca8d0b5d4d5f",
        "gas": "0x1274b",
        "value": "0x0",
        "input": "0xa9059cbb0000000000000000000000002678a3e148e92608b9a3ffb4bcb2b1bec07efdf100000000000000000000000000000000000000000000000000000000000f4240",
        "nonce": "0x1c",
        "chainId": "0x14a34"
      },
      "additionalContracts": [],
      "isFixedGasLimit": false
    },
    {
      "hash": "0xe71112be38dd53195ab2f79cd058ec706ff0f91e39e99f2c81c90b1b7e3f3295",
      "transactionType": "CALL",
      "contractName": null,
      "contractAddress": "0x2678a3e148e92608b9a3ffb4bcb2b1bec07efdf1",
      "function": "execute((uint8,bytes)[])",
      "arguments": [
        "[(0, 0x000000000000000000000000ba50cd2a20f6da35d788639e581bca8d0b5d4d5f00000000000000000000000000000000000000000000000000000000000f4240)]"
      ],
      "transaction": {
        "from": "0x95f07d66738e651599c576246bcfb4e5e061e934",
        "to": "0x2678a3e148e92608b9a3ffb4bcb2b1bec07efdf1",
        "gas": "0x32916",
        "value": "0x0",
        "input": "0x49650044000000000000000000000000000000000000000000000000000000000000002000000000000000000000000000000000000000000000000000000000000000010000000000000000000000000000000000000000000000000000000000000020000000000000000000000000000000000000000000000000000000000000000000000000000000000000000000000000000000000000000000000000000000400000000000000000000000000000000000000000000000000000000000000040000000000000000000000000ba50cd2a20f6da35d788639e581bca8d0b5d4d5f00000000000000000000000000000000000000000000000000000000000f4240",
        "nonce": "0x1d",
        "chainId": "0x14a34"
      },
      "additionalContracts": [],
      "isFixedGasLimit": false
    }
  ],
  "receipts": [
    {
      "status": "0x1",
      "cumulativeGasUsed": "0xc9e9",
      "logs": [
        {
          "address": "0xba50cd2a20f6da35d788639e581bca8d0b5d4d5f",
          "topics": [
            "0xddf252ad1be2c89b69c2b068fc378daa952ba7f163c4a11628f55a4df523b3ef",
            "0x00000000000000000000000095f07d66738e651599c576246bcfb4e5e061e934",
            "0x0000000000000000000000002678a3e148e92608b9a3ffb4bcb2b1bec07efdf1"
          ],
          "data": "0x00000000000000000000000000000000000000000000000000000000000f4240",
          "blockHash": "0xa47a2be34275163c4c6cd6a4bfabfafbf556abe09ef615f540775a4a6784e84d",
          "blockNumber": "0x2386598",
          "blockTimestamp": "0x69842aa5",
          "transactionHash": "0x5207b6d9288c0ba0656b0c9ca6500a1c75b52dce4549cabad23b09049c6cb42a",
          "transactionIndex": "0x0",
          "logIndex": "0x0",
          "removed": false
        }
      ],
      "logsBloom": "0x00000000000000000000000000001000000000000000000000000080000400000000000000000000000000000000000000000000000000000000000200000000000000000000000000000008000200000000000000004000000000000000000000000000000000000000000000000000000000000000000000000010000000000000000000000000000000000000000000000000000000001000000000000000000000000000000000000000000000000000000000000000020000000000000000000002000000000000000000000000000000000000000000000000000000000000000000000000000000000000000000000000002000000000000000000000",
      "type": "0x2",
      "transactionHash": "0x5207b6d9288c0ba0656b0c9ca6500a1c75b52dce4549cabad23b09049c6cb42a",
      "transactionIndex": "0x0",
      "blockHash": "0xa47a2be34275163c4c6cd6a4bfabfafbf556abe09ef615f540775a4a6784e84d",
      "blockNumber": "0x2386598",
      "gasUsed": "0xc9e9",
      "effectiveGasPrice": "0x115e8d",
      "blobGasPrice": "0x1",
      "from": "0x95f07d66738e651599c576246bcfb4e5e061e934",
      "to": "0xba50cd2a20f6da35d788639e581bca8d0b5d4d5f",
      "contractAddress": null
    },
    {
      "status": "0x1",
      "cumulativeGasUsed": "0x26237",
      "logs": [
        {
          "address": "0xba50cd2a20f6da35d788639e581bca8d0b5d4d5f",
          "topics": [
            "0x8c5be1e5ebec7d5bd14f71427d1e84f3dd0314c0f7b2291e5b200ac8c7c3b925",
            "0x0000000000000000000000002678a3e148e92608b9a3ffb4bcb2b1bec07efdf1",
            "0x0000000000000000000000008bab6d1b75f19e9ed9fce8b9bd338844ff79ae27"
          ],
          "data": "0x00000000000000000000000000000000000000000000000000000000000f4240",
          "blockHash": "0x0bb45a31d8dee4cbdf6313ee39c26567f7a652e097d0fcdadc3f8ae7a3bee20d",
          "blockNumber": "0x2386599",
          "blockTimestamp": "0x69842aa5",
          "transactionHash": "0xe71112be38dd53195ab2f79cd058ec706ff0f91e39e99f2c81c90b1b7e3f3295",
          "transactionIndex": "0x0",
          "logIndex": "0x0",
          "removed": false
        },
        {
          "address": "0x8bab6d1b75f19e9ed9fce8b9bd338844ff79ae27",
          "topics": [
            "0x804c9b842b2748a22bb64b345453a3de7ca54a6ca45ce00d415894979e22897a",
            "0x000000000000000000000000ba50cd2a20f6da35d788639e581bca8d0b5d4d5f"
          ],
          "data": "0x0000000000000000000000000000000000000000000461229e097f94d8d37e4800000000000000000000000000000000000000000000000000000000000000000000000000000000000000000000000000000000000ea6d438beef02b433a0f10000000000000000000000000000000000000000040077655a8f7efe37f26191000000000000000000000000000000000000000004225f3130a0bb47f0a74d20",
          "blockHash": "0x0bb45a31d8dee4cbdf6313ee39c26567f7a652e097d0fcdadc3f8ae7a3bee20d",
          "blockNumber": "0x2386599",
          "blockTimestamp": "0x69842aa5",
          "transactionHash": "0xe71112be38dd53195ab2f79cd058ec706ff0f91e39e99f2c81c90b1b7e3f3295",
          "transactionIndex": "0x0",
          "logIndex": "0x1",
          "removed": false
        },
        {
          "address": "0xba50cd2a20f6da35d788639e581bca8d0b5d4d5f",
          "topics": [
            "0xddf252ad1be2c89b69c2b068fc378daa952ba7f163c4a11628f55a4df523b3ef",
            "0x0000000000000000000000002678a3e148e92608b9a3ffb4bcb2b1bec07efdf1",
            "0x00000000000000000000000010f1a9d11cdf50041f3f8cb7191cbe2f31750acc"
          ],
          "data": "0x00000000000000000000000000000000000000000000000000000000000f4240",
          "blockHash": "0x0bb45a31d8dee4cbdf6313ee39c26567f7a652e097d0fcdadc3f8ae7a3bee20d",
          "blockNumber": "0x2386599",
          "blockTimestamp": "0x69842aa5",
          "transactionHash": "0xe71112be38dd53195ab2f79cd058ec706ff0f91e39e99f2c81c90b1b7e3f3295",
          "transactionIndex": "0x0",
          "logIndex": "0x2",
          "removed": false
        },
        {
          "address": "0xba50cd2a20f6da35d788639e581bca8d0b5d4d5f",
          "topics": [
            "0x8c5be1e5ebec7d5bd14f71427d1e84f3dd0314c0f7b2291e5b200ac8c7c3b925",
            "0x0000000000000000000000002678a3e148e92608b9a3ffb4bcb2b1bec07efdf1",
            "0x0000000000000000000000008bab6d1b75f19e9ed9fce8b9bd338844ff79ae27"
          ],
          "data": "0x0000000000000000000000000000000000000000000000000000000000000000",
          "blockHash": "0x0bb45a31d8dee4cbdf6313ee39c26567f7a652e097d0fcdadc3f8ae7a3bee20d",
          "blockNumber": "0x2386599",
          "blockTimestamp": "0x69842aa5",
          "transactionHash": "0xe71112be38dd53195ab2f79cd058ec706ff0f91e39e99f2c81c90b1b7e3f3295",
          "transactionIndex": "0x0",
          "logIndex": "0x3",
          "removed": false
        },
        {
          "address": "0x10f1a9d11cdf50041f3f8cb7191cbe2f31750acc",
          "topics": [
            "0xddf252ad1be2c89b69c2b068fc378daa952ba7f163c4a11628f55a4df523b3ef",
            "0x0000000000000000000000000000000000000000000000000000000000000000",
            "0x00000000000000000000000095f07d66738e651599c576246bcfb4e5e061e934"
          ],
          "data": "0x00000000000000000000000000000000000000000000000000000000000f423f",
          "blockHash": "0x0bb45a31d8dee4cbdf6313ee39c26567f7a652e097d0fcdadc3f8ae7a3bee20d",
          "blockNumber": "0x2386599",
          "blockTimestamp": "0x69842aa5",
          "transactionHash": "0xe71112be38dd53195ab2f79cd058ec706ff0f91e39e99f2c81c90b1b7e3f3295",
          "transactionIndex": "0x0",
          "logIndex": "0x4",
          "removed": false
        },
        {
          "address": "0x10f1a9d11cdf50041f3f8cb7191cbe2f31750acc",
          "topics": [
            "0x458f5fa412d0f69b08dd84872b0215675cc67bc1d5b6fd93300a1c3878b86196",
            "0x0000000000000000000000002678a3e148e92608b9a3ffb4bcb2b1bec07efdf1",
            "0x00000000000000000000000095f07d66738e651599c576246bcfb4e5e061e934"
          ],
          "data": "0x00000000000000000000000000000000000000000000000000000000000f423f00000000000000000000000000000000000000000000000000000000000000000000000000000000000000000000000000000000040077655a8f7efe37f26191",
          "blockHash": "0x0bb45a31d8dee4cbdf6313ee39c26567f7a652e097d0fcdadc3f8ae7a3bee20d",
          "blockNumber": "0x2386599",
          "blockTimestamp": "0x69842aa5",
          "transactionHash": "0xe71112be38dd53195ab2f79cd058ec706ff0f91e39e99f2c81c90b1b7e3f3295",
          "transactionIndex": "0x0",
          "logIndex": "0x5",
          "removed": false
        },
        {
          "address": "0x8bab6d1b75f19e9ed9fce8b9bd338844ff79ae27",
          "topics": [
            "0x2b627736bca15cd5381dcf80b0bf11fd197d01a037c52b927a881a10fb73ba61",
            "0x000000000000000000000000ba50cd2a20f6da35d788639e581bca8d0b5d4d5f",
            "0x00000000000000000000000095f07d66738e651599c576246bcfb4e5e061e934",
            "0x0000000000000000000000000000000000000000000000000000000000000000"
          ],
          "data": "0x0000000000000000000000002678a3e148e92608b9a3ffb4bcb2b1bec07efdf100000000000000000000000000000000000000000000000000000000000f4240",
          "blockHash": "0x0bb45a31d8dee4cbdf6313ee39c26567f7a652e097d0fcdadc3f8ae7a3bee20d",
          "blockNumber": "0x2386599",
          "blockTimestamp": "0x69842aa5",
          "transactionHash": "0xe71112be38dd53195ab2f79cd058ec706ff0f91e39e99f2c81c90b1b7e3f3295",
          "transactionIndex": "0x0",
          "logIndex": "0x6",
          "removed": false
        }
      ],
      "logsBloom": "0x00000000000000000000000000001000400000000000800000000080000400000000000000000000000000000004000000000000000000000000000200200000000000008000000000000408020a00000000000000004000000000040000000000000000020000000000000000800800000000000000100000000010000000000000000000000000000000000000000000002000000000001000000000000000020000000000000000000000040000000000000004000000020000100000018002000002000000000004002040000000000000000000000000000000000020000010000000000000000000000000200040000000002000000000400000000000",
      "type": "0x2",
      "transactionHash": "0xe71112be38dd53195ab2f79cd058ec706ff0f91e39e99f2c81c90b1b7e3f3295",
      "transactionIndex": "0x0",
      "blockHash": "0x0bb45a31d8dee4cbdf6313ee39c26567f7a652e097d0fcdadc3f8ae7a3bee20d",
      "blockNumber": "0x2386599",
      "gasUsed": "0x26237",
      "effectiveGasPrice": "0x111b22",
      "blobGasPrice": "0x1",
      "from": "0x95f07d66738e651599c576246bcfb4e5e061e934",
      "to": "0x2678a3e148e92608b9a3ffb4bcb2b1bec07efdf1",
      "contractAddress": null
    }
  ],
  "libraries": [],
  "pending": [],
  "returns": {},
  "timestamp": 1770269350906,
  "chain": 84532,
  "commit": "000986d"
}