{
  "transactions": [
    {
      "hash": "0x24334ebbc33295c2477fc76f7efd813a07fc9afff37d56f22596fa88406a9100",
      "transactionType": "CALL",
      "contractName": null,
      "contractAddress": "0xba50cd2a20f6da35d788639e581bca8d0b5d4d5f",
      "function": "transfer(address,uint256)",
      "arguments": [
        "0x2678a3E148E92608b9A3FfB4BCb2B1Bec07EFdf1",
        "1000000"
      ],
      "transaction": {
        "from": "0x95f07d66738e651599c576246bcfb4e5e061e934",
        "to": "0xba50cd2a20f6da35d788639e581bca8d0b5d4d5f",
        "gas": "0x1274b",
        "value": "0x0",
        "input": "0xa9059cbb0000000000000000000000002678a3e148e92608b9a3ffb4bcb2b1bec07efdf100000000000000000000000000000000000000000000000000000000000f4240",
        "nonce": "0x16",
        "chainId": "0x14a34"
      },
      "additionalContracts": [],
      "isFixedGasLimit": false
    },
    {
      "hash": "0xa81847638d466ec70bdba7ecbf674a7637329fd4be5b0ac40a7261cee7a9a834",
      "transactionType": "CALL",
      "contractName": null,
      "contractAddress": "0x2678a3e148e92608b9a3ffb4bcb2b1bec07efdf1",
      "function": "execute((uint8,bytes)[])",
      "arguments": [
        "[(0, 0x000000000000000000000000ba50cd2a20f6da35d788639e581bca8d0b5d4d5f00000000000000000000000000000000000000000000000000000000000f4240)]"
      ],
      "transaction": {
        "from": "0x95f07d66738e651599c576246bcfb4e5e061e934",
        "to": "0x2678a3e148e92608b9a3ffb4bcb2b1bec07efdf1",
        "gas": "0x34adb",
        "value": "0x0",
        "input": "0x49650044000000000000000000000000000000000000000000000000000000000000002000000000000000000000000000000000000000000000000000000000000000010000000000000000000000000000000000000000000000000000000000000020000000000000000000000000000000000000000000000000000000000000000000000000000000000000000000000000000000000000000000000000000000400000000000000000000000000000000000000000000000000000000000000040000000000000000000000000ba50cd2a20f6da35d788639e581bca8d0b5d4d5f00000000000000000000000000000000000000000000000000000000000f4240",
        "nonce": "0x17",
        "chainId": "0x14a34"
      },
      "additionalContracts": [],
      "isFixedGasLimit": false
    }
  ],
  "receipts": [
    {
      "status": "0x1",
      "cumulativeGasUsed": "0x2d0389",
      "logs": [
        {
          "address": "0xba50cd2a20f6da35d788639e581bca8d0b5d4d5f",
          "topics": [
            "0xddf252ad1be2c89b69c2b068fc378daa952ba7f163c4a11628f55a4df523b3ef",
            "0x00000000000000000000000095f07d66738e651599c576246bcfb4e5e061e934",
            "0x0000000000000000000000002678a3e148e92608b9a3ffb4bcb2b1bec07efdf1"
          ],
          "data": "0x00000000000000000000000000000000000000000000000000000000000f4240",
          "blockHash": "0x2bc43e0d66220cdb03c8c30fa3e36dccfdaa95024303698ca66c47c794dadce8",
          "blockNumber": "0x2386493",
          "blockTimestamp": "0x69842806",
          "transactionHash": "0x24334ebbc33295c2477fc76f7efd813a07fc9afff37d56f22596fa88406a9100",
          "transactionIndex": "0xa",
          "logIndex": "0x5b",
          "removed": false
        }
      ],
      "logsBloom": "0x00000000000000000000000000001000000000000000000000000080000400000000000000000000000000000000000000000000000000000000000200000000000000000000000000000008000200000000000000004000000000000000000000000000000000000000000000000000000000000000000000000010000000000000000000000000000000000000000000000000000000001000000000000000000000000000000000000000000000000000000000000000020000000000000000000002000000000000000000000000000000000000000000000000000000000000000000000000000000000000000000000000002000000000000000000000",
      "type": "0x2",
      "transactionHash": "0x24334ebbc33295c2477fc76f7efd813a07fc9afff37d56f22596fa88406a9100",
      "transactionIndex": "0xa",
      "blockHash": "0x2bc43e0d66220cdb03c8c30fa3e36dccfdaa95024303698ca66c47c794dadce8",
      "blockNumber": "0x2386493",
      "gasUsed": "0xc9e9",
      "effectiveGasPrice": "0x124f80",
      "blobGasUsed": "0x79e0",
      "from": "0x95f07d66738e651599c576246bcfb4e5e061e934",
      "to": "0xba50cd2a20f6da35d788639e581bca8d0b5d4d5f",
      "contractAddress": null,
      "daFootprintGasScalar": "0x138",
      "l1BaseFeeScalar": "0x44d",
      "l1BlobBaseFee": "0x3c9c947",
      "l1BlobBaseFeeScalar": "0xa118b",
      "l1Fee": "0x15fbb677f",
      "l1GasPrice": "0x39c4ce93",
      "l1GasUsed": "0x640"
    },
    {
      "status": "0x1",
      "cumulativeGasUsed": "0x2f65c0",
      "logs": [
        {
          "address": "0xba50cd2a20f6da35d788639e581bca8d0b5d4d5f",
          "topics": [
            "0x8c5be1e5ebec7d5bd14f71427d1e84f3dd0314c0f7b2291e5b200ac8c7c3b925",
            "0x0000000000000000000000002678a3e148e92608b9a3ffb4bcb2b1bec07efdf1",
            "0x0000000000000000000000008bab6d1b75f19e9ed9fce8b9bd338844ff79ae27"
          ],
          "data": "0x00000000000000000000000000000000000000000000000000000000000f4240",
          "blockHash": "0x0000000000000000000000000000000000000000000000000000000000000000",
          "blockNumber": "0x2386493",
          "blockTimestamp": "0x69842806",
          "transactionHash": "0xa81847638d466ec70bdba7ecbf674a7637329fd4be5b0ac40a7261cee7a9a834",
          "transactionIndex": "0xb",
          "logIndex": "0x5c",
          "removed": false
        },
        {
          "address": "0x8bab6d1b75f19e9ed9fce8b9bd338844ff79ae27",
          "topics": [
            "0x804c9b842b2748a22bb64b345453a3de7ca54a6ca45ce00d415894979e22897a",
            "0x000000000000000000000000ba50cd2a20f6da35d788639e581bca8d0b5d4d5f"
          ],
          "data": "0x000000000000000000000000000000000000000000046122af933c491452ddb100000000000000000000000000000000000000000000000000000000000000000000000000000000000000000000000000000000000ea6d4561548880c3e847300000000000000000000000000000000000000000400775dca5b191789e13bcc000000000000000000000000000000000000000004225f170c8cb4541897c9e2",
          "blockHash": "0x0000000000000000000000000000000000000000000000000000000000000000",
          "blockNumber": "0x2386493",
          "blockTimestamp": "0x69842806",
          "transactionHash": "0xa81847638d466ec70bdba7ecbf674a7637329fd4be5b0ac40a7261cee7a9a834",
          "transactionIndex": "0xb",
          "logIndex": "0x5d",
          "removed": false
        },
        {
          "address": "0xba50cd2a20f6da35d788639e581bca8d0b5d4d5f",
          "topics": [
            "0xddf252ad1be2c89b69c2b068fc378daa952ba7f163c4a11628f55a4df523b3ef",
            "0x0000000000000000000000002678a3e148e92608b9a3ffb4bcb2b1bec07efdf1",
            "0x00000000000000000000000010f1a9d11cdf50041f3f8cb7191cbe2f31750acc"
          ],
          "data": "0x00000000000000000000000000000000000000000000000000000000000f4240",
          "blockHash": "0x0000000000000000000000000000000000000000000000000000000000000000",
          "blockNumber": "0x2386493",
          "blockTimestamp": "0x69842806",
          "transactionHash": "0xa81847638d466ec70bdba7ecbf674a7637329fd4be5b0ac40a7261cee7a9a834",
          "transactionIndex": "0xb",
          "logIndex": "0x5e",
          "removed": false
        },
        {
          "address": "0xba50cd2a20f6da35d788639e581bca8d0b5d4d5f",
          "topics": [
            "0x8c5be1e5ebec7d5bd14f71427d1e84f3dd0314c0f7b2291e5b200ac8c7c3b925",
            "0x0000000000000000000000002678a3e148e92608b9a3ffb4bcb2b1bec07efdf1",
            "0x0000000000000000000000008bab6d1b75f19e9ed9fce8b9bd338844ff79ae27"
          ],
          "data": "0x0000000000000000000000000000000000000000000000000000000000000000",
          "blockHash": "0x0000000000000000000000000000000000000000000000000000000000000000",
          "blockNumber": "0x2386493",
          "blockTimestamp": "0x69842806",
          "transactionHash": "0xa81847638d466ec70bdba7ecbf674a7637329fd4be5b0ac40a7261cee7a9a834",
          "transactionIndex": "0xb",
          "logIndex": "0x5f",
          "removed": false
        },
        {
          "address": "0x10f1a9d11cdf50041f3f8cb7191cbe2f31750acc",
          "topics": [
            "0xddf252ad1be2c89b69c2b068fc378daa952ba7f163c4a11628f55a4df523b3ef",
            "0x0000000000000000000000000000000000000000000000000000000000000000",
            "0x00000000000000000000000095f07d66738e651599c576246bcfb4e5e061e934"
          ],
          "data": "0x00000000000000000000000000000000000000000000000000000000000f423f",
          "blockHash": "0x0000000000000000000000000000000000000000000000000000000000000000",
          "blockNumber": "0x2386493",
          "blockTimestamp": "0x69842806",
          "transactionHash": "0xa81847638d466ec70bdba7ecbf674a7637329fd4be5b0ac40a7261cee7a9a834",
          "transactionIndex": "0xb",
          "logIndex": "0x60",
          "removed": false
        },
        {
          "address": "0x10f1a9d11cdf50041f3f8cb7191cbe2f31750acc",
          "topics": [
            "0x458f5fa412d0f69b08dd84872b0215675cc67bc1d5b6fd93300a1c3878b86196",
            "0x0000000000000000000000002678a3e148e92608b9a3ffb4bcb2b1bec07efdf1",
            "0x00000000000000000000000095f07d66738e651599c576246bcfb4e5e061e934"
          ],
          "data": "0x00000000000000000000000000000000000000000000000000000000000f423f000000000000000000000000000000000000000000000000000000000000000100000000000000000000000000000000000000000400775dca5b191789e13bcc",
          "blockHash": "0x0000000000000000000000000000000000000000000000000000000000000000",
          "blockNumber": "0x2386493",
          "blockTimestamp": "0x69842806",
          "transactionHash": "0xa81847638d466ec70bdba7ecbf674a7637329fd4be5b0ac40a7261cee7a9a834",
          "transactionIndex": "0xb",
          "logIndex": "0x61",
          "removed": false
        },
        {
          "address": "0x8bab6d1b75f19e9ed9fce8b9bd338844ff79ae27",
          "topics": [
            "0x2b627736bca15cd5381dcf80b0bf11fd197d01a037c52b927a881a10fb73ba61",
            "0x000000000000000000000000ba50cd2a20f6da35d788639e581bca8d0b5d4d5f",
            "0x00000000000000000000000095f07d66738e651599c576246bcfb4e5e061e934",
            "0x0000000000000000000000000000000000000000000000000000000000000000"
          ],
          "data": "0x0000000000000000000000002678a3e148e92608b9a3ffb4bcb2b1bec07efdf100000000000000000000000000000000000000000000000000000000000f4240",
          "blockHash": "0x0000000000000000000000000000000000000000000000000000000000000000",
          "blockNumber": "0x2386493",
          "blockTimestamp": "0x69842806",
          "transactionHash": "0xa81847638d466ec70bdba7ecbf674a7637329fd4be5b0ac40a7261cee7a9a834",
          "transactionIndex": "0xb",
          "logIndex": "0x62",
          "removed": false
        }
      ],
      "logsBloom": "0x00000000000000000000000000001000400000000000800000000080000400000000000000000000000000000004000000000000000000000000000200200000000000008000000000000408020a00000000000000004000000000040000000000000000020000000000000000800800000000000000100000000010000000000000000000000000000000000000000000002000000000001000000000000000020000000000000000000000040000000000000004000000020000100000018002000002000000000004002040000000000000000000000000000000000020000010000000000000000000000000200040000000002000000000400000000000",
      "type": "0x2",
      "transactionHash": "0xa81847638d466ec70bdba7ecbf674a7637329fd4be5b0ac40a7261cee7a9a834",
      "transactionIndex": "0xb",
      "blockHash": "0x0000000000000000000000000000000000000000000000000000000000000000",
      "blockNumber": "0x2386493",
      "gasUsed": "0x26237",
      "effectiveGasPrice": "0x124f80",
      "blobGasUsed": "0x8268",
      "from": "0x95f07d66738e651599c576246bcfb4e5e061e934",
      "to": "0x2678a3e148e92608b9a3ffb4bcb2b1bec07efdf1",
      "contractAddress": null,
      "daFootprintGasScalar": "0x138",
      "l1BaseFeeScalar": "0x44d",
      "l1BlobBaseFee": "0x3c9c947",
      "l1BlobBaseFeeScalar": "0xa118b",
      "l1Fee": "0xc8d3105dc",
      "l1GasPrice": "0x39c4ce93",
      "l1GasUsed": "0x6bf"
    }
  ],
  "libraries": [],
  "pending": [],
  "returns": {},
  "timestamp": 1770268678079,
  "chain": 84532,
  "commit": "000986d"
}