{
  "transactions": [
    {
      "hash": "0x6da33a053314f8570b352e6fbf2bab973d7666fdc4918362f7fb9c059025ab9c",
      "transactionType": "CALL",
      "contractName": null,
      "contractAddress": "0xba50cd2a20f6da35d788639e581bca8d0b5d4d5f",
      "function": "transfer(address,uint256)",
      "arguments": [
        "0x2678a3E148E92608b9A3FfB4BCb2B1Bec07EFdf1",
        "1000000"
      ],
      "transaction": {
        "from": "0x95f07d66738e651599c576246bcfb4e5e061e934",
        "to": "0xba50cd2a20f6da35d788639e581bca8d0b5d4d5f",
        "gas": "0x1274b",
        "value": "0x0",
        "input": "0xa9059cbb0000000000000000000000002678a3e148e92608b9a3ffb4bcb2b1bec07efdf100000000000000000000000000000000000000000000000000000000000f4240",
        "nonce": "0x1a",
        "chainId": "0x14a34"
      },
      "additionalContracts": [],
      "isFixedGasLimit": false
    },
    {
      "hash": "0x770be325c2143b44cfb573dccf973284eb3f97bd578d756c09c5139b4e5ac975",
      "transactionType": "CALL",
      "contractName": null,
      "contractAddress": "0x2678a3e148e92608b9a3ffb4bcb2b1bec07efdf1",
      "function": "execute((uint8,bytes)[])",
      "arguments": [
        "[(0, 0x000000000000000000000000ba50cd2a20f6da35d788639e581bca8d0b5d4d5f00000000000000000000000000000000000000000000000000000000000f4240)]"
      ],
      "transaction": {
        "from": "0x95f07d66738e651599c576246bcfb4e5e061e934",
        "to": "0x2678a3e148e92608b9a3ffb4bcb2b1bec07efdf1",
        "gas": "0x34adb",
        "value": "0x0",
        "input": "0x49650044000000000000000000000000000000000000000000000000000000000000002000000000000000000000000000000000000000000000000000000000000000010000000000000000000000000000000000000000000000000000000000000020000000000000000000000000000000000000000000000000000000000000000000000000000000000000000000000000000000000000000000000000000000400000000000000000000000000000000000000000000000000000000000000040000000000000000000000000ba50cd2a20f6da35d788639e581bca8d0b5d4d5f00000000000000000000000000000000000000000000000000000000000f4240",
        "nonce": "0x1b",
        "chainId": "0x14a34"
      },
      "additionalContracts": [],
      "isFixedGasLimit": false
    }
  ],
  "receipts": [
    {
      "status": "0x1",
      "cumulativeGasUsed": "0xc9e9",
      "logs": [
        {
          "address": "0xba50cd2a20f6da35d788639e581bca8d0b5d4d5f",
          "topics": [
            "0xddf252ad1be2c89b69c2b068fc378daa952ba7f163c4a11628f55a4df523b3ef",
            "0x00000000000000000000000095f07d66738e651599c576246bcfb4e5e061e934",
            "0x0000000000000000000000002678a3e148e92608b9a3ffb4bcb2b1bec07efdf1"
          ],
          "data": "0x00000000000000000000000000000000000000000000000000000000000f4240",
          "blockHash": "0x5287490a2f13e6f2b1112d6eef8e727c07e2e81a33a4e369f8806fc10c1741b3",
          "blockNumber": "0x2386596",
          "blockTimestamp": "0x69842a9d",
          "transactionHash": "0x6da33a053314f8570b352e6fbf2bab973d7666fdc4918362f7fb9c059025ab9c",
          "transactionIndex": "0x0",
          "logIndex": "0x0",
          "removed": false
        }
      ],
      "logsBloom": "0x00000000000000000000000000001000000000000000000000000080000400000000000000000000000000000000000000000000000000000000000200000000000000000000000000000008000200000000000000004000000000000000000000000000000000000000000000000000000000000000000000000010000000000000000000000000000000000000000000000000000000001000000000000000000000000000000000000000000000000000000000000000020000000000000000000002000000000000000000000000000000000000000000000000000000000000000000000000000000000000000000000000002000000000000000000000",
      "type": "0x2",
      "transactionHash": "0x6da33a053314f8570b352e6fbf2bab973d7666fdc4918362f7fb9c059025ab9c",
      "transactionIndex": "0x0",
      "blockHash": "0x5287490a2f13e6f2b1112d6eef8e727c07e2e81a33a4e369f8806fc10c1741b3",
      "blockNumber": "0x2386596",
      "gasUsed": "0xc9e9",
      "effectiveGasPrice": "0x12033f",
      "blobGasPrice": "0x2",
      "from": "0x95f07d66738e651599c576246bcfb4e5e061e934",
      "to": "0xba50cd2a20f6da35d788639e581bca8d0b5d4d5f",
      "contractAddress": null
    },
    {
      "status": "0x1",
      "cumulativeGasUsed": "0x26237",
      "logs": [
        {
          "address": "0xba50cd2a20f6da35d788639e581bca8d0b5d4d5f",
          "topics": [
            "0x8c5be1e5ebec7d5bd14f71427d1e84f3dd0314c0f7b2291e5b200ac8c7c3b925",
            "0x0000000000000000000000002678a3e148e92608b9a3ffb4bcb2b1bec07efdf1",
            "0x0000000000000000000000008bab6d1b75f19e9ed9fce8b9bd338844ff79ae27"
          ],
          "data": "0x00000000000000000000000000000000000000000000000000000000000f4240",
          "blockHash": "0x4c94bedd6cffb16a7cc88d96fd6c6c8e78c7864df33fa66e82713f56590f0327",
          "blockNumber": "0x2386597",
          "blockTimestamp": "0x69842a9d",
          "transactionHash": "0x770be325c2143b44cfb573dccf973284eb3f97bd578d756c09c5139b4e5ac975",
          "transactionIndex": "0x0",
          "logIndex": "0x0",
          "removed": false
        },
        {
          "address": "0x8bab6d1b75f19e9ed9fce8b9bd338844ff79ae27",
          "topics": [
            "0x804c9b842b2748a22bb64b345453a3de7ca54a6ca45ce00d415894979e22897a",
            "0x000000000000000000000000ba50cd2a20f6da35d788639e581bca8d0b5d4d5f"
          ],
          "data": "0x000000000000000000000000000000000000000000046122b8dc0eded9ef1b4f00000000000000000000000000000000000000000000000000000000000000000000000000000000000000000000000000000000000ea6d4659d3026cae767930000000000000000000000000000000000000000040077654379e2e83e6176e6000000000000000000000000000000000000000004225f30e0d76d366b0083b2",
          "blockHash": "0x4c94bedd6cffb16a7cc88d96fd6c6c8e78c7864df33fa66e82713f56590f0327",
          "blockNumber": "0x2386597",
          "blockTimestamp": "0x69842a9d",
          "transactionHash": "0x770be325c2143b44cfb573dccf973284eb3f97bd578d756c09c5139b4e5ac975",
          "transactionIndex": "0x0",
          "logIndex": "0x1",
          "removed": false
        },
        {
          "address": "0xba50cd2a20f6da35d788639e581bca8d0b5d4d5f",
          "topics": [
            "0xddf252ad1be2c89b69c2b068fc378daa952ba7f163c4a11628f55a4df523b3ef",
            "0x0000000000000000000000002678a3e148e92608b9a3ffb4bcb2b1bec07efdf1",
            "0x00000000000000000000000010f1a9d11cdf50041f3f8cb7191cbe2f31750acc"
          ],
          "data": "0x00000000000000000000000000000000000000000000000000000000000f4240",
          "blockHash": "0x4c94bedd6cffb16a7cc88d96fd6c6c8e78c7864df33fa66e82713f56590f0327",
          "blockNumber": "0x2386597",
          "blockTimestamp": "0x69842a9d",
          "transactionHash": "0x770be325c2143b44cfb573dccf973284eb3f97bd578d756c09c5139b4e5ac975",
          "transactionIndex": "0x0",
          "logIndex": "0x2",
          "removed": false
        },
        {
          "address": "0xba50cd2a20f6da35d788639e581bca8d0b5d4d5f",
          "topics": [
            "0x8c5be1e5ebec7d5bd14f71427d1e84f3dd0314c0f7b2291e5b200ac8c7c3b925",
            "0x0000000000000000000000002678a3e148e92608b9a3ffb4bcb2b1bec07efdf1",
            "0x0000000000000000000000008bab6d1b75f19e9ed9fce8b9bd338844ff79ae27"
          ],
          "data": "0x0000000000000000000000000000000000000000000000000000000000000000",
          "blockHash": "0x4c94bedd6cffb16a7cc88d96fd6c6c8e78c7864df33fa66e82713f56590f0327",
          "blockNumber": "0x2386597",
          "blockTimestamp": "0x69842a9d",
          "transactionHash": "0x770be325c2143b44cfb573dccf973284eb3f97bd578d756c09c5139b4e5ac975",
          "transactionIndex": "0x0",
          "logIndex": "0x3",
          "removed": false
        },
        {
          "address": "0x10f1a9d11cdf50041f3f8cb7191cbe2f31750acc",
          "topics": [
            "0xddf252ad1be2c89b69c2b068fc378daa952ba7f163c4a11628f55a4df523b3ef",
            "0x0000000000000000000000000000000000000000000000000000000000000000",
            "0x00000000000000000000000095f07d66738e651599c576246bcfb4e5e061e934"
          ],
          "data": "0x00000000000000000000000000000000000000000000000000000000000f4240",
          "blockHash": "0x4c94bedd6cffb16a7cc88d96fd6c6c8e78c7864df33fa66e82713f56590f0327",
          "blockNumber": "0x2386597",
          "blockTimestamp": "0x69842a9d",
          "transactionHash": "0x770be325c2143b44cfb573dccf973284eb3f97bd578d756c09c5139b4e5ac975",
          "transactionIndex": "0x0",
          "logIndex": "0x4",
          "removed": false
        },
        {
          "address": "0x10f1a9d11cdf50041f3f8cb7191cbe2f31750acc",
          "topics": [
            "0x458f5fa412d0f69b08dd84872b0215675cc67bc1d5b6fd93300a1c3878b86196",
            "0x0000000000000000000000002678a3e148e92608b9a3ffb4bcb2b1bec07efdf1",
            "0x00000000000000000000000095f07d66738e651599c576246bcfb4e5e061e934"
          ],
          "data": "0x00000000000000000000000000000000000000000000000000000000000f424000000000000000000000000000000000000000000000000000000000000000010000000000000000000000000000000000000000040077654379e2e83e6176e6",
          "blockHash": "0x4c94bedd6cffb16a7cc88d96fd6c6c8e78c7864df33fa66e82713f56590f0327",
          "blockNumber": "0x2386597",
          "blockTimestamp": "0x69842a9d",
          "transactionHash": "0x770be325c2143b44cfb573dccf973284eb3f97bd578d756c09c5139b4e5ac975",
          "transactionIndex": "0x0",
          "logIndex": "0x5",
          "removed": false
        },
        {
          "address": "0x8bab6d1b75f19e9ed9fce8b9bd338844ff79ae27",
          "topics": [
            "0x2b627736bca15cd5381dcf80b0bf11fd197d01a037c52b927a881a10fb73ba61",
            "0x000000000000000000000000ba50cd2a20f6da35d788639e581bca8d0b5d4d5f",
            "0x00000000000000000000000095f07d66738e651599c576246bcfb4e5e061e934",
            "0x0000000000000000000000000000000000000000000000000000000000000000"
          ],
          "data": "0x0000000000000000000000002678a3e148e92608b9a3ffb4bcb2b1bec07efdf100000000000000000000000000000000000000000000000000000000000f4240",
          "blockHash": "0x4c94bedd6cffb16a7cc88d96fd6c6c8e78c7864df33fa66e82713f56590f0327",
          "blockNumber": "0x2386597",
          "blockTimestamp": "0x69842a9d",
          "transactionHash": "0x770be325c2143b44cfb573dccf973284eb3f97bd578d756c09c5139b4e5ac975",
          "transactionIndex": "0x0",
          "logIndex": "0x6",
          "removed": false
        }
      ],
      "logsBloom": "0x00000000000000000000000000001000400000000000800000000080000400000000000000000000000000000004000000000000000000000000000200200000000000008000000000000408020a00000000000000004000000000040000000000000000020000000000000000800800000000000000100000000010000000000000000000000000000000000000000000002000000000001000000000000000020000000000000000000000040000000000000004000000020000100000018002000002000000000004002040000000000000000000000000000000000020000010000000000000000000000000200040000000002000000000400000000000",
      "type": "0x2",
      "transactionHash": "0x770be325c2143b44cfb573dccf973284eb3f97bd578d756c09c5139b4e5ac975",
      "transactionIndex": "0x0",
      "blockHash": "0x4c94bedd6cffb16a7cc88d96fd6c6c8e78c7864df33fa66e82713f56590f0327",
      "blockNumber": "0x2386597",
      "gasUsed": "0x26237",
      "effectiveGasPrice": "0x11ab46",
      "blobGasPrice": "0x1",
      "from": "0x95f07d66738e651599c576246bcfb4e5e061e934",
      "to": "0x2678a3e148e92608b9a3ffb4bcb2b1bec07efdf1",
      "contractAddress": null
    }
  ],
  "libraries": [],
  "pending": [],
  "returns": {},
  "timestamp": 1770269342201,
  "chain": 84532,
  "commit": "000986d"
}