{
  "transactions": [
    {
      "hash": "0x80e171418f1fa315f5743e1183f179764df846036e9fa2f58b869df53d98ac1a",
      "transactionType": "CALL",
      "contractName": null,
      "contractAddress": "0xba50cd2a20f6da35d788639e581bca8d0b5d4d5f",
      "function": "approve(address,uint256)",
      "arguments": [
        "0x2678a3E148E92608b9A3FfB4BCb2B1Bec07EFdf1",
        "1000000000000"
      ],
      "transaction": {
        "from": "0x95f07d66738e651599c576246bcfb4e5e061e934",
        "to": "0xba50cd2a20f6da35d788639e581bca8d0b5d4d5f",
        "gas": "0x8e28",
        "value": "0x0",
        "input": "0x095ea7b30000000000000000000000002678a3e148e92608b9a3ffb4bcb2b1bec07efdf1000000000000000000000000000000000000000000000000000000e8d4a51000",
        "nonce": "0x10",
        "chainId": "0x14a34"
      },
      "additionalContracts": [],
      "isFixedGasLimit": false
    }
  ],
  "receipts": [
    {
      "status": "0x1",
      "cumulativeGasUsed": "0x21085b",
      "logs": [
        {
          "address": "0xba50cd2a20f6da35d788639e581bca8d0b5d4d5f",
          "topics": [
            "0x8c5be1e5ebec7d5bd14f71427d1e84f3dd0314c0f7b2291e5b200ac8c7c3b925",
            "0x00000000000000000000000095f07d66738e651599c576246bcfb4e5e061e934",
            "0x0000000000000000000000002678a3e148e92608b9a3ffb4bcb2b1bec07efdf1"
          ],
          "data": "0x000000000000000000000000000000000000000000000000000000e8d4a51000",
          "blockHash": "0x0000000000000000000000000000000000000000000000000000000000000000",
          "blockNumber": "0x23861e9",
          "blockTimestamp": "0x698422b2",
          "transactionHash": "0x80e171418f1fa315f5743e1183f179764df846036e9fa2f58b869df53d98ac1a",
          "transactionIndex": "0xd",
          "logIndex": "0x37",
          "removed": false
        }
      ],
      "logsBloom": "0x00000000000000000000000000001000000000000000000000000080000400000000000000000000000000000000000000000000000000000000000200200000000000000000000000000000000200000000000000004000000000000000000000000000000000000000000000000000000000000000000000000000000000000000000000000000000000000000000000000000000000001000000000000000020000000000000000000000000000000000000000000000020000000000000000000000000000000000000000000000000000000000000000000000000000000010000000000000000000000000000000000000002000000000000000000000",
      "type": "0x2",
      "transactionHash": "0x80e171418f1fa315f5743e1183f179764df846036e9fa2f58b869df53d98ac1a",
      "transactionIndex": "0xd",
      "blockHash": "0x0000000000000000000000000000000000000000000000000000000000000000",
      "blockNumber": "0x23861e9",
      "gasUsed": "0x66ec",
      "effectiveGasPrice": "0x124f80",
      "blobGasUsed": "0x79e0",
      "from": "0x95f07d66738e651599c576246bcfb4e5e061e934",
      "to": "0xba50cd2a20f6da35d788639e581bca8d0b5d4d5f",
      "contractAddress": null,
      "daFootprintGasScalar": "0x138",
      "l1BaseFeeScalar": "0x44d",
      "l1BlobBaseFee": "0x38e0fea",
      "l1BlobBaseFeeScalar": "0xa118b",
      "l1Fee": "0x15ea9db52",
      "l1GasPrice": "0x41e6a306",
      "l1GasUsed": "0x640"
    }
  ],
  "libraries": [],
  "pending": [],
  "returns": {},
  "timestamp": 1770267313264,
  "chain": 84532,
  "commit": "000986d"
}