{
  "transactions": [
    {
      "hash": "0x633b4f29215750ecb54a6601e2001f3c038413f30e35ab27ef0cff78cbbcb74f",
      "transactionType": "CALL",
      "contractName": null,
      "contractAddress": "0xba50cd2a20f6da35d788639e581bca8d0b5d4d5f",
      "function": "transfer(address,uint256)",
      "arguments": [
        "0x2678a3E148E92608b9A3FfB4BCb2B1Bec07EFdf1",
        "1000000"
      ],
      "transaction": {
        "from": "0x95f07d66738e651599c576246bcfb4e5e061e934",
        "to": "0xba50cd2a20f6da35d788639e581bca8d0b5d4d5f",
        "gas": "0x1274b",
        "value": "0x0",
        "input": "0xa9059cbb0000000000000000000000002678a3e148e92608b9a3ffb4bcb2b1bec07efdf100000000000000000000000000000000000000000000000000000000000f4240",
        "nonce": "0xb",
        "chainId": "0x14a34"
      },
      "additionalContracts": [],
      "isFixedGasLimit": false
    },
    {
      "hash": "0xf9c795196c60e87e77008c3c8385a73493b5f131cba3424782b50da008d5246a",
      "transactionType": "CALL",
      "contractName": null,
      "contractAddress": "0x2678a3e148e92608b9a3ffb4bcb2b1bec07efdf1",
      "function": "execute((uint8,bytes)[])",
      "arguments": [
        "[(0, 0x000000000000000000000000ba50cd2a20f6da35d788639e581bca8d0b5d4d5f00000000000000000000000000000000000000000000000000000000000f4240)]"
      ],
      "transaction": {
        "from": "0x95f07d66738e651599c576246bcfb4e5e061e934",
        "to": "0x2678a3e148e92608b9a3ffb4bcb2b1bec07efdf1",
        "gas": "0x42cd9",
        "value": "0x0",
        "input": "0x49650044000000000000000000000000000000000000000000000000000000000000002000000000000000000000000000000000000000000000000000000000000000010000000000000000000000000000000000000000000000000000000000000020000000000000000000000000000000000000000000000000000000000000000000000000000000000000000000000000000000000000000000000000000000400000000000000000000000000000000000000000000000000000000000000040000000000000000000000000ba50cd2a20f6da35d788639e581bca8d0b5d4d5f00000000000000000000000000000000000000000000000000000000000f4240",
        "nonce": "0xc",
        "chainId": "0x14a34"
      },
      "additionalContracts": [],
      "isFixedGasLimit": false
    }
  ],
  "receipts": [
    {
      "status": "0x1",
      "cumulativeGasUsed": "0x2c7fd5",
      "logs": [
        {
          "address": "0xba50cd2a20f6da35d788639e581bca8d0b5d4d5f",
          "topics": [
            "0xddf252ad1be2c89b69c2b068fc378daa952ba7f163c4a11628f55a4df523b3ef",
            "0x00000000000000000000000095f07d66738e651599c576246bcfb4e5e061e934",
            "0x0000000000000000000000002678a3e148e92608b9a3ffb4bcb2b1bec07efdf1"
          ],
          "data": "0x00000000000000000000000000000000000000000000000000000000000f4240",
          "blockHash": "0x0000000000000000000000000000000000000000000000000000000000000000",
          "blockNumber": "0x2385ba9",
          "blockTimestamp": "0x69841632",
          "transactionHash": "0x633b4f29215750ecb54a6601e2001f3c038413f30e35ab27ef0cff78cbbcb74f",
          "transactionIndex": "0xf",
          "logIndex": "0x33",
          "removed": false
        }
      ],
      "logsBloom": "0x00000000000000000000000000001000000000000000000000000080000400000000000000000000000000000000000000000000000000000000000200000000000000000000000000000008000200000000000000004000000000000000000000000000000000000000000000000000000000000000000000000010000000000000000000000000000000000000000000000000000000001000000000000000000000000000000000000000000000000000000000000000020000000000000000000002000000000000000000000000000000000000000000000000000000000000000000000000000000000000000000000000002000000000000000000000",
      "type": "0x2",
      "transactionHash": "0x633b4f29215750ecb54a6601e2001f3c038413f30e35ab27ef0cff78cbbcb74f",
      "transactionIndex": "0xf",
      "blockHash": "0x0000000000000000000000000000000000000000000000000000000000000000",
      "blockNumber": "0x2385ba9",
      "gasUsed": "0xc9e9",
      "effectiveGasPrice": "0x124f80",
      "blobGasUsed": "0x79e0",
      "from": "0x95f07d66738e651599c576246bcfb4e5e061e934",
      "to": "0xba50cd2a20f6da35d788639e581bca8d0b5d4d5f",
      "contractAddress": null,
      "daFootprintGasScalar": "0x138",
      "l1BaseFeeScalar": "0x44d",
      "l1BlobBaseFee": "0x3768e5f",
      "l1BlobBaseFeeScalar": "0xa118b",
      "l1Fee": "0x14b85d47e",
      "l1GasPrice": "0x3a79893a",
      "l1GasUsed": "0x640"
    },
    {
      "status": "0x1",
      "cumulativeGasUsed": "0x4cd36c",
      "logs": [
        {
          "address": "0xba50cd2a20f6da35d788639e581bca8d0b5d4d5f",
          "topics": [
            "0x8c5be1e5ebec7d5bd14f71427d1e84f3dd0314c0f7b2291e5b200ac8c7c3b925",
            "0x0000000000000000000000002678a3e148e92608b9a3ffb4bcb2b1bec07efdf1",
            "0x0000000000000000000000008bab6d1b75f19e9ed9fce8b9bd338844ff79ae27"
          ],
          "data": "0x00000000000000000000000000000000000000000000000000000000000f4240",
          "blockHash": "0x0000000000000000000000000000000000000000000000000000000000000000",
          "blockNumber": "0x2385ba9",
          "blockTimestamp": "0x69841632",
          "transactionHash": "0xf9c795196c60e87e77008c3c8385a73493b5f131cba3424782b50da008d5246a",
          "transactionIndex": "0x12",
          "logIndex": "0x43",
          "removed": false
        },
        {
          "address": "0x8bab6d1b75f19e9ed9fce8b9bd338844ff79ae27",
          "topics": [
            "0x804c9b842b2748a22bb64b345453a3de7ca54a6ca45ce00d415894979e22897a",
            "0x000000000000000000000000ba50cd2a20f6da35d788639e581bca8d0b5d4d5f"
          ],
          "data": "0x00000000000000000000000000000000000000000004610af8c002e265f0330300000000000000000000000000000000000000000000000000000000000000000000000000000000000000000000000000000000000ea6acaab59b45bfa2083400000000000000000000000000000000000000000400772a59585513a119e0fb000000000000000000000000000000000000000004225e653f9e46c24a1c3a6a",
          "blockHash": "0x0000000000000000000000000000000000000000000000000000000000000000",
          "blockNumber": "0x2385ba9",
          "blockTimestamp": "0x69841632",
          "transactionHash": "0xf9c795196c60e87e77008c3c8385a73493b5f131cba3424782b50da008d5246a",
          "transactionIndex": "0x12",
          "logIndex": "0x44",
          "removed": false
        },
        {
          "address": "0xba50cd2a20f6da35d788639e581bca8d0b5d4d5f",
          "topics": [
            "0xddf252ad1be2c89b69c2b068fc378daa952ba7f163c4a11628f55a4df523b3ef",
            "0x0000000000000000000000002678a3e148e92608b9a3ffb4bcb2b1bec07efdf1",
            "0x00000000000000000000000010f1a9d11cdf50041f3f8cb7191cbe2f31750acc"
          ],
          "data": "0x00000000000000000000000000000000000000000000000000000000000f4240",
          "blockHash": "0x0000000000000000000000000000000000000000000000000000000000000000",
          "blockNumber": "0x2385ba9",
          "blockTimestamp": "0x69841632",
          "transactionHash": "0xf9c795196c60e87e77008c3c8385a73493b5f131cba3424782b50da008d5246a",
          "transactionIndex": "0x12",
          "logIndex": "0x45",
          "removed": false
        },
        {
          "address": "0xba50cd2a20f6da35d788639e581bca8d0b5d4d5f",
          "topics": [
            "0x8c5be1e5ebec7d5bd14f71427d1e84f3dd0314c0f7b2291e5b200ac8c7c3b925",
            "0x0000000000000000000000002678a3e148e92608b9a3ffb4bcb2b1bec07efdf1",
            "0x0000000000000000000000008bab6d1b75f19e9ed9fce8b9bd338844ff79ae27"
          ],
          "data": "0x0000000000000000000000000000000000000000000000000000000000000000",
          "blockHash": "0x0000000000000000000000000000000000000000000000000000000000000000",
          "blockNumber": "0x2385ba9",
          "blockTimestamp": "0x69841632",
          "transactionHash": "0xf9c795196c60e87e77008c3c8385a73493b5f131cba3424782b50da008d5246a",
          "transactionIndex": "0x12",
          "logIndex": "0x46",
          "removed": false
        },
        {
          "address": "0x10f1a9d11cdf50041f3f8cb7191cbe2f31750acc",
          "topics": [
            "0xddf252ad1be2c89b69c2b068fc378daa952ba7f163c4a11628f55a4df523b3ef",
            "0x0000000000000000000000000000000000000000000000000000000000000000",
            "0x00000000000000000000000095f07d66738e651599c576246bcfb4e5e061e934"
          ],
          "data": "0x00000000000000000000000000000000000000000000000000000000000f423f",
          "blockHash": "0x0000000000000000000000000000000000000000000000000000000000000000",
          "blockNumber": "0x2385ba9",
          "blockTimestamp": "0x69841632",
          "transactionHash": "0xf9c795196c60e87e77008c3c8385a73493b5f131cba3424782b50da008d5246a",
          "transactionIndex": "0x12",
          "logIndex": "0x47",
          "removed": false
        },
        {
          "address": "0x10f1a9d11cdf50041f3f8cb7191cbe2f31750acc",
          "topics": [
            "0x458f5fa412d0f69b08dd84872b0215675cc67bc1d5b6fd93300a1c3878b86196",
            "0x0000000000000000000000002678a3e148e92608b9a3ffb4bcb2b1bec07efdf1",
            "0x00000000000000000000000095f07d66738e651599c576246bcfb4e5e061e934"
          ],
          "data": "0x00000000000000000000000000000000000000000000000000000000000f423f000000000000000000000000000000000000000000000000000000000000000000000000000000000000000000000000000000000400772a59585513a119e0fb",
          "blockHash": "0x0000000000000000000000000000000000000000000000000000000000000000",
          "blockNumber": "0x2385ba9",
          "blockTimestamp": "0x69841632",
          "transactionHash": "0xf9c795196c60e87e77008c3c8385a73493b5f131cba3424782b50da008d5246a",
          "transactionIndex": "0x12",
          "logIndex": "0x48",
          "removed": false
        },
        {
          "address": "0x8bab6d1b75f19e9ed9fce8b9bd338844ff79ae27",
          "topics": [
            "0x00058a56ea94653cdf4f152d227ace22d4c00ad99e2a43f58cb7d9e3feb295f2",
            "0x000000000000000000000000ba50cd2a20f6da35d788639e581bca8d0b5d4d5f",
            "0x00000000000000000000000095f07d66738e651599c576246bcfb4e5e061e934"
          ],
          "data": "0x",
          "blockHash": "0x0000000000000000000000000000000000000000000000000000000000000000",
          "blockNumber": "0x2385ba9",
          "blockTimestamp": "0x69841632",
          "transactionHash": "0xf9c795196c60e87e77008c3c8385a73493b5f131cba3424782b50da008d5246a",
          "transactionIndex": "0x12",
          "logIndex": "0x49",
          "removed": false
        },
        {
          "address": "0x8bab6d1b75f19e9ed9fce8b9bd338844ff79ae27",
          "topics": [
            "0x2b627736bca15cd5381dcf80b0bf11fd197d01a037c52b927a881a10fb73ba61",
            "0x000000000000000000000000ba50cd2a20f6da35d788639e581bca8d0b5d4d5f",
            "0x00000000000000000000000095f07d66738e651599c576246bcfb4e5e061e934",
            "0x0000000000000000000000000000000000000000000000000000000000000000"
          ],
          "data": "0x0000000000000000000000002678a3e148e92608b9a3ffb4bcb2b1bec07efdf100000000000000000000000000000000000000000000000000000000000f4240",
          "blockHash": "0x0000000000000000000000000000000000000000000000000000000000000000",
          "blockNumber": "0x2385ba9",
          "blockTimestamp": "0x69841632",
          "transactionHash": "0xf9c795196c60e87e77008c3c8385a73493b5f131cba3424782b50da008d5246a",
          "transactionIndex": "0x12",
          "logIndex": "0x4a",
          "removed": false
        }
      ],
      "logsBloom": "0x00000000000008000080000000001000400000000000800000000080000400000000000000000000000000000004000000000000000000000000000200200000000000008000000000000408020a00000000000000004000000000040000000000000000020000000000000000800800000000000000100000000010000000000000000080000000000000000000000000002000000000001000000000000000020000000000000000000000040000000000000004000000020000100000018002000002000000000004002040000000000000000000000000000000000020000010000000000000000000000000200040000000002000000000400000000000",
      "type": "0x2",
      "transactionHash": "0xf9c795196c60e87e77008c3c8385a73493b5f131cba3424782b50da008d5246a",
      "transactionIndex": "0x12",
      "blockHash": "0x0000000000000000000000000000000000000000000000000000000000000000",
      "blockNumber": "0x2385ba9",
      "gasUsed": "0x305d4",
      "effectiveGasPrice": "0x124f80",
      "blobGasUsed": "0x8268",
      "from": "0x95f07d66738e651599c576246bcfb4e5e061e934",
      "to": "0x2678a3e148e92608b9a3ffb4bcb2b1bec07efdf1",
      "contractAddress": null,
      "daFootprintGasScalar": "0x138",
      "l1BaseFeeScalar": "0x44d",
      "l1BlobBaseFee": "0x3768e5f",
      "l1BlobBaseFeeScalar": "0xa118b",
      "l1Fee": "0x165fe2d40",
      "l1GasPrice": "0x3a79893a",
      "l1GasUsed": "0x6bf"
    }
  ],
  "libraries": [],
  "pending": [],
  "returns": {},
  "timestamp": 1770264113959,
  "chain": 84532,
  "commit": "559ef1d"
}