{
  "transactions": [
    {
      "hash": "0x084fb99caacac5c9eba69fd05f763b77b314d228e73a262eb853a3213245d05d",
      "transactionType": "CALL",
      "contractName": null,
      "contractAddress": "0xba50cd2a20f6da35d788639e581bca8d0b5d4d5f",
      "function": "transfer(address,uint256)",
      "arguments": [
        "0xC66818682B4E2F0f55Cf8A36055b1CaA40934280",
        "1000000"
      ],
      "transaction": {
        "from": "0x95f07d66738e651599c576246bcfb4e5e061e934",
        "to": "0xba50cd2a20f6da35d788639e581bca8d0b5d4d5f",
        "gas": "0x1274b",
        "value": "0x0",
        "input": "0xa9059cbb000000000000000000000000c66818682b4e2f0f55cf8a36055b1caa4093428000000000000000000000000000000000000000000000000000000000000f4240",
        "nonce": "0xc",
        "chainId": "0x14a34"
      },
      "additionalContracts": [],
      "isFixedGasLimit": false
    },
    {
      "hash": "0xaaa9a1cbd4e7e211bd710445b1e2fdbc7f02f9e4ef1c108d28317a905250d362",
      "transactionType": "CALL",
      "contractName": null,
      "contractAddress": "0xc66818682b4e2f0f55cf8a36055b1caa40934280",
      "function": "execute((uint8,bytes)[])",
      "arguments": [
        "[(0, 0x000000000000000000000000ba50cd2a20f6da35d788639e581bca8d0b5d4d5f00000000000000000000000000000000000000000000000000000000000f4240)]"
      ],
      "transaction": {
        "from": "0x95f07d66738e651599c576246bcfb4e5e061e934",
        "to": "0xc66818682b4e2f0f55cf8a36055b1caa40934280",
        "gas": "0x42cd9",
        "value": "0x0",
        "input": "0x49650044000000000000000000000000000000000000000000000000000000000000002000000000000000000000000000000000000000000000000000000000000000010000000000000000000000000000000000000000000000000000000000000020000000000000000000000000000000000000000000000000000000000000000000000000000000000000000000000000000000000000000000000000000000400000000000000000000000000000000000000000000000000000000000000040000000000000000000000000ba50cd2a20f6da35d788639e581bca8d0b5d4d5f00000000000000000000000000000000000000000000000000000000000f4240",
        "nonce": "0xd",
        "chainId": "0x14a34"
      },
      "additionalContracts": [],
      "isFixedGasLimit": false
    }
  ],
  "receipts": [
    {
      "status": "0x1",
      "cumulativeGasUsed": "0xc9e9",
      "logs": [
        {
          "address": "0xba50cd2a20f6da35d788639e581bca8d0b5d4d5f",
          "topics": [
            "0xddf252ad1be2c89b69c2b068fc378daa952ba7f163c4a11628f55a4df523b3ef",
            "0x00000000000000000000000095f07d66738e651599c576246bcfb4e5e061e934",
            "0x000000000000000000000000c66818682b4e2f0f55cf8a36055b1caa40934280"
          ],
          "data": "0x00000000000000000000000000000000000000000000000000000000000f4240",
          "blockHash": "0xa5852056e6c2f9155f0083fdd9c587e3d43f573839a2d151339ca549dbd4c31a",
          "blockNumber": "0x2385881",
          "blockTimestamp": "0x69841589",
          "transactionHash": "0x084fb99caacac5c9eba69fd05f763b77b314d228e73a262eb853a3213245d05d",
          "transactionIndex": "0x0",
          "logIndex": "0x0",
          "removed": false
        }
      ],
      "logsBloom": "0x00000000000000000000000000001000000000000000000000000000000400000000000000000000000000000000000000000000000000000000800200000000000000000000000000000008000000000000000000004000000000000000000000000000000000000000000000000000000000000000000000000010000000000000000000000000000000000000000000000000000000000000000000000000000000000000000000000000000000000000004000000000020000000000000000000002000000000000040000000000000000000000000000000000000000000000000000000000000000000000000000000000002000000000000000000000",
      "type": "0x2",
      "transactionHash": "0x084fb99caacac5c9eba69fd05f763b77b314d228e73a262eb853a3213245d05d",
      "transactionIndex": "0x0",
      "blockHash": "0xa5852056e6c2f9155f0083fdd9c587e3d43f573839a2d151339ca549dbd4c31a",
      "blockNumber": "0x2385881",
      "gasUsed": "0xc9e9",
      "effectiveGasPrice": "0x11a7e4",
      "blobGasPrice": "0x1",
      "from": "0x95f07d66738e651599c576246bcfb4e5e061e934",
      "to": "0xba50cd2a20f6da35d788639e581bca8d0b5d4d5f",
      "contractAddress": null
    },
    {
      "status": "0x1",
      "cumulativeGasUsed": "0x305d4",
      "logs": [
        {
          "address": "0xba50cd2a20f6da35d788639e581bca8d0b5d4d5f",
          "topics": [
            "0x8c5be1e5ebec7d5bd14f71427d1e84f3dd0314c0f7b2291e5b200ac8c7c3b925",
            "0x000000000000000000000000c66818682b4e2f0f55cf8a36055b1caa40934280",
            "0x0000000000000000000000008bab6d1b75f19e9ed9fce8b9bd338844ff79ae27"
          ],
          "data": "0x00000000000000000000000000000000000000000000000000000000000f4240",
          "blockHash": "0x5082d6d387a097ad152c8f30df5e134772f28d6bba1974d5fd58c3a2407ecf4d",
          "blockNumber": "0x2385882",
          "blockTimestamp": "0x69841589",
          "transactionHash": "0xaaa9a1cbd4e7e211bd710445b1e2fdbc7f02f9e4ef1c108d28317a905250d362",
          "transactionIndex": "0x0",
          "logIndex": "0x0",
          "removed": false
        },
        {
          "address": "0x8bab6d1b75f19e9ed9fce8b9bd338844ff79ae27",
          "topics": [
            "0x804c9b842b2748a22bb64b345453a3de7ca54a6ca45ce00d415894979e22897a",
            "0x000000000000000000000000ba50cd2a20f6da35d788639e581bca8d0b5d4d5f"
          ],
          "data": "0x00000000000000000000000000000000000000000004610aef6f563f94d972e400000000000000000000000000000000000000000000000000000000000000000000000000000000000000000000000000000000000ea6ac9b2067057025d43d00000000000000000000000000000000000000000400772871baf3abb8eedbf9000000000000000000000000000000000000000004225e5eaa35cd73eccc267b",
          "blockHash": "0x5082d6d387a097ad152c8f30df5e134772f28d6bba1974d5fd58c3a2407ecf4d",
          "blockNumber": "0x2385882",
          "blockTimestamp": "0x69841589",
          "transactionHash": "0xaaa9a1cbd4e7e211bd710445b1e2fdbc7f02f9e4ef1c108d28317a905250d362",
          "transactionIndex": "0x0",
          "logIndex": "0x1",
          "removed": false
        },
        {
          "address": "0xba50cd2a20f6da35d788639e581bca8d0b5d4d5f",
          "topics": [
            "0xddf252ad1be2c89b69c2b068fc378daa952ba7f163c4a11628f55a4df523b3ef",
            "0x000000000000000000000000c66818682b4e2f0f55cf8a36055b1caa40934280",
            "0x00000000000000000000000010f1a9d11cdf50041f3f8cb7191cbe2f31750acc"
          ],
          "data": "0x00000000000000000000000000000000000000000000000000000000000f4240",
          "blockHash": "0x5082d6d387a097ad152c8f30df5e134772f28d6bba1974d5fd58c3a2407ecf4d",
          "blockNumber": "0x2385882",
          "blockTimestamp": "0x69841589",
          "transactionHash": "0xaaa9a1cbd4e7e211bd710445b1e2fdbc7f02f9e4ef1c108d28317a905250d362",
          "transactionIndex": "0x0",
          "logIndex": "0x2",
          "removed": false
        },
        {
          "address": "0xba50cd2a20f6da35d788639e581bca8d0b5d4d5f",
          "topics": [
            "0x8c5be1e5ebec7d5bd14f71427d1e84f3dd0314c0f7b2291e5b200ac8c7c3b925",
            "0x000000000000000000000000c66818682b4e2f0f55cf8a36055b1caa40934280",
            "0x0000000000000000000000008bab6d1b75f19e9ed9fce8b9bd338844ff79ae27"
          ],
          "data": "0x0000000000000000000000000000000000000000000000000000000000000000",
          "blockHash": "0x5082d6d387a097ad152c8f30df5e134772f28d6bba1974d5fd58c3a2407ecf4d",
          "blockNumber": "0x2385882",
          "blockTimestamp": "0x69841589",
          "transactionHash": "0xaaa9a1cbd4e7e211bd710445b1e2fdbc7f02f9e4ef1c108d28317a905250d362",
          "transactionIndex": "0x0",
          "logIndex": "0x3",
          "removed": false
        },
        {
          "address": "0x10f1a9d11cdf50041f3f8cb7191cbe2f31750acc",
          "topics": [
            "0xddf252ad1be2c89b69c2b068fc378daa952ba7f163c4a11628f55a4df523b3ef",
            "0x0000000000000000000000000000000000000000000000000000000000000000",
            "0x00000000000000000000000095f07d66738e651599c576246bcfb4e5e061e934"
          ],
          "data": "0x00000000000000000000000000000000000000000000000000000000000f423f",
          "blockHash": "0x5082d6d387a097ad152c8f30df5e134772f28d6bba1974d5fd58c3a2407ecf4d",
          "blockNumber": "0x2385882",
          "blockTimestamp": "0x69841589",
          "transactionHash": "0xaaa9a1cbd4e7e211bd710445b1e2fdbc7f02f9e4ef1c108d28317a905250d362",
          "transactionIndex": "0x0",
          "logIndex": "0x4",
          "removed": false
        },
        {
          "address": "0x10f1a9d11cdf50041f3f8cb7191cbe2f31750acc",
          "topics": [
            "0x458f5fa412d0f69b08dd84872b0215675cc67bc1d5b6fd93300a1c3878b86196",
            "0x000000000000000000000000c66818682b4e2f0f55cf8a36055b1caa40934280",
            "0x00000000000000000000000095f07d66738e651599c576246bcfb4e5e061e934"
          ],
          "data": "0x00000000000000000000000000000000000000000000000000000000000f423f000000000000000000000000000000000000000000000000000000000000000000000000000000000000000000000000000000000400772871baf3abb8eedbf9",
          "blockHash": "0x5082d6d387a097ad152c8f30df5e134772f28d6bba1974d5fd58c3a2407ecf4d",
          "blockNumber": "0x2385882",
          "blockTimestamp": "0x69841589",
          "transactionHash": "0xaaa9a1cbd4e7e211bd710445b1e2fdbc7f02f9e4ef1c108d28317a905250d362",
          "transactionIndex": "0x0",
          "logIndex": "0x5",
          "removed": false
        },
        {
          "address": "0x8bab6d1b75f19e9ed9fce8b9bd338844ff79ae27",
          "topics": [
            "0x00058a56ea94653cdf4f152d227ace22d4c00ad99e2a43f58cb7d9e3feb295f2",
            "0x000000000000000000000000ba50cd2a20f6da35d788639e581bca8d0b5d4d5f",
            "0x00000000000000000000000095f07d66738e651599c576246bcfb4e5e061e934"
          ],
          "data": "0x",
          "blockHash": "0x5082d6d387a097ad152c8f30df5e134772f28d6bba1974d5fd58c3a2407ecf4d",
          "blockNumber": "0x2385882",
          "blockTimestamp": "0x69841589",
          "transactionHash": "0xaaa9a1cbd4e7e211bd710445b1e2fdbc7f02f9e4ef1c108d28317a905250d362",
          "transactionIndex": "0x0",
          "logIndex": "0x6",
          "removed": false
        },
        {
          "address": "0x8bab6d1b75f19e9ed9fce8b9bd338844ff79ae27",
          "topics": [
            "0x2b627736bca15cd5381dcf80b0bf11fd197d01a037c52b927a881a10fb73ba61",
            "0x000000000000000000000000ba50cd2a20f6da35d788639e581bca8d0b5d4d5f",
            "0x00000000000000000000000095f07d66738e651599c576246bcfb4e5e061e934",
            "0x0000000000000000000000000000000000000000000000000000000000000000"
          ],
          "data": "0x000000000000000000000000c66818682b4e2f0f55cf8a36055b1caa4093428000000000000000000000000000000000000000000000000000000000000f4240",
          "blockHash": "0x5082d6d387a097ad152c8f30df5e134772f28d6bba1974d5fd58c3a2407ecf4d",
          "blockNumber": "0x2385882",
          "blockTimestamp": "0x69841589",
          "transactionHash": "0xaaa9a1cbd4e7e211bd710445b1e2fdbc7f02f9e4ef1c108d28317a905250d362",
          "transactionIndex": "0x0",
          "logIndex": "0x7",
          "removed": false
        }
      ],
      "logsBloom": "0x00000000000008000080000000001000400000000000800000000000000400000000000000000000000000000004000000000000000000000000800200200000000000008000000000000408020800000000000000004000000000040000000000000000020000000000000000800800000000000000100000000010000000000000000080000000000000000000000000002000000000000000000000000000020000000000000000000000040000000000004004000000020000100000018002000002000000000004042040000000000000000000000000000000000020000010000000000000000000000000200040000000002000000000400000000000",
      "type": "0x2",
      "transactionHash": "0xaaa9a1cbd4e7e211bd710445b1e2fdbc7f02f9e4ef1c108d28317a905250d362",
      "transactionIndex": "0x0",
      "blockHash": "0x5082d6d387a097ad152c8f30df5e134772f28d6bba1974d5fd58c3a2407ecf4d",
      "blockNumber": "0x2385882",
      "gasUsed": "0x305d4",
      "effectiveGasPrice": "0x115b52",
      "blobGasPrice": "0x1",
      "from": "0x95f07d66738e651599c576246bcfb4e5e061e934",
      "to": "0xc66818682b4e2f0f55cf8a36055b1caa40934280",
      "contractAddress": null
    }
  ],
  "libraries": [],
  "pending": [],
  "returns": {},
  "timestamp": 1770263946672,
  "chain": 84532,
  "commit": "559ef1d"
}